:100000000C945D000C9485000C9485000C94850084
:100010000C9485000C9485000C9485000C9485004C
:100020000C9485000C9485000C9485000C9485003C
:100030000C9485000C9485000C9485000C9485002C
:100040000C9414030C9485000C94DF050C94110699
:100050000C9485000C9485000C9485000C9485000C
:100060000C9485000C94850000000008000201003B
:100070000003040700000000000000000102040863
:100080001020408001020408102001020408102002
:10009000040404040404040402020202020203032E
:1000A0000303030300000000250028002B000000CC
:1000B0000000240027002A00410611241FBECFEFB4
:1000C000D8E0DEBFCDBF11E0A0E0B1E0ECEEF7E19B
:1000D00002C005900D92A03DB107D9F722E0A0ED36
:1000E000B1E001C01D92A23BB207E1F710E0CAEBFC
:1000F000D0E004C02297FE010E946B09C83BD107E3
:10010000C9F70E9485060C94F40B0C94000040ED96
:1001100057E060E070E081ED91E00E947B0220E812
:1001200035E240E050E061E172E081ED91E00E9453
:100130008E0281ED91E00E94780266E071E080918C
:100140000202909103020E94E0066AE070E080E003
:1001500090E00E948D0341E060E081ED91E00E941B
:10016000F90226E040E855E260E070E081E192E0CB
:100170000E947D0561E085E00E942B0461E083E040
:100180000E942B0461E084E00E942B0461E088E07F
:100190000C942B042F923F924F925F926F927F921A
:1001A0008F929F92AF92BF92CF92DF92EF92FF9287
:1001B0000F931F93CF93DF9300D01F92CDB7DEB77D
:1001C0005C014B012901FB010481158101501109DA
:1001D000612C712CCC24CA94DC2C212C312CE12CE8
:1001E000F12C7B826A82061517057CF14E145F04A0
:1001F0002CF16A817B81C40149830E94E0082A8135
:100200003B812F5F3F4F4981841741F08A819B8159
:100210008017910719F0DB82CA820CC09FEFE91AA0
:10022000F90A1601EFEF2E1A3E0A6016710611F454
:100230003B832A833901CA80DB80D3CF9601A10199
:10024000B401C5010E94E20808C04E145F04B4F373
:1002500069E671E0C5010E942308C5010F900F9067
:100260000F90DF91CF911F910F91FF90EF90DF9052
:10027000CF90BF90AF909F908F907F906F905F9046
:100280004F903F902F9008950F931F93CF93DF933C
:10029000CDB7DEB76E970FB6F894DEBF0FBECDBFF9
:1002A0008C0168E171E0CE0149960E94230861E06B
:1002B00088E00E9464040E945E0328EE33E040E080
:1002C00050E00E944709BA01A9012AE030E081E12B
:1002D00092E00E9459076AE171E081E192E00E9498
:1002E000E006B80181E192E00E94E606C8010E94A2
:1002F000270960E088E00E946404B801CE010196FD
:100300000E94500820E030E04AE3BE016F5F7F4F5B
:10031000CE0143960E94CA00CE0101960E94B50705
:10032000B801CE0101960E94500821E030E04AE376
:10033000BE016F5F7F4FCE010D960E94CA00CE01B5
:1003400001960E94B507B801CE0101960E9450089F
:1003500022E030E04AE3BE016F5F7F4FCE01079697
:100360000E94CA00CE0101960E94B507CE010D96EB
:100370000E943B09162F6FE271E0CE0143960E9466
:10038000B008882311F060E009C065E371E0CE0198
:1003900043960E94B008882321F061E0812F0E94DB
:1003A0002B046CE371E0CE0107960E94B00888230D
:1003B00011F061E009C061E471E0CE0107960E948E
:1003C000B008882321F060E0812F0E946404CE01F0
:1003D00007960E94B507CE010D960E94B507CE0183
:1003E00043960E94B507CE0149960E94B5076E96C6
:1003F0000FB6F894DEBF0FBECDBFDF91CF911F9136
:100400000F9108951F93CF93DF9300D000D000D0B9
:10041000CDB7DEB711E08091D001811122C081E11A
:1004200092E00E949A0418161906ACF761E172E096
:10043000CE0101960E949B0765E471E0CE01019612
:100440000E94B008882341F06EE471E081E192E0FF
:100450000E94F8061093D001CE0101960E94B507C4
:10046000DACF81E192E00E949A041816190674F41A
:1004700061E172E0CE0101960E949B07CE010196D8
:100480000E944401CE0101960E94B50726960FB640
:10049000F894DEBF0FBECDBFDF91CF911F910895BD
:1004A0000F931F93CF93DF93EC01662359F00E94C3
:1004B0005E0369837A838B839C83DF91CF911F9145
:1004C0000F9108950E945E0309811A812B813C815E
:1004D000601B710B820B930B6931710581059105CE
:1004E00030F763E070E080E090E00E948D03EACF97
:1004F00060E00C945002FC0113AA14AA15AA16AAD3
:100500001182128213821482411551056105710511
:1005100021F0CB01BA010C948D030895FB01BA01BF
:10052000A901DC01D296FC93EE93D19726E0CF018E
:100530000C947D051F93CF93DF93EC01162F6AE592
:1005400071E089A99AA90E94E0064AE050E0612F73
:1005500089A99AA90E94660761E671E089A99AA90A
:100560000E94E00662E370E080E090E0DF91CF91CE
:100570001F910C948D031F93CF93DF93EC01162FE3
:100580008D81882389F189A99AA9DC01ED91FC91DB
:100590000480F581E02D0995892BA9F307C0263742
:1005A000310519F12835310509F41D8289A99AA967
:1005B000DC01ED91FC910480F581E02D0995181680
:1005C000190694F489A99AA9DC01ED91FC910680A1
:1005D000F781E02D09959C01332723363105F9F683
:1005E000612FCE010E949A0283E6DF91CF911F9185
:1005F00008950F931F93CF93DF931F92CDB7DEB76C
:100600008C01662349F081E0F801858360E0C80130
:1006100049830E94BB024981F80145830F90DF9115
:10062000CF911F910F9108951F920F920FB60F92C5
:1006300011242F933F938F939F93AF93BF938091F8
:10064000090290910A02A0910B02B0910C02309124
:10065000080223E0230F2D3720F40196A11DB11DC0
:1006600005C026E8230F0296A11DB11D20930802A4
:100670008093090290930A02A0930B02B0930C029C
:1006800080910D0290910E02A0910F02B091100284
:100690000196A11DB11D80930D0290930E02A093AF
:1006A0000F02B0931002BF91AF919F918F913F9134
:1006B0002F910F900FBE0F901F9018952FB7F894A1
:1006C0006091090270910A0280910B0290910C02D4
:1006D0002FBF08953FB7F89480910D0290910E02BC
:1006E000A0910F02B091100226B5A89B05C02F3F24
:1006F00019F00196A11DB11D3FBF6627782F892FE4
:100700009A2F620F711D811D911D42E0660F771FA8
:10071000881F991F4A95D1F708958F929F92AF92A3
:10072000BF92CF92DF92EF92FF926B017C010E9409
:100730006A034B015C01C114D104E104F104F1F03E
:100740000E9446090E946A03681979098A099B096F
:10075000683E73408105910570F321E0C21AD1080B
:10076000E108F10888EE880E83E0981EA11CB11CF8
:10077000C114D104E104F10429F7DDCFFF90EF901B
:10078000DF90CF90BF90AF909F908F900895789416
:1007900084B5826084BD84B5816084BD85B5826086
:1007A00085BD85B5816085BDEEE6F0E08081816024
:1007B0008083E1E8F0E01082808182608083808124
:1007C00081608083E0E8F0E0808181608083E1EBFC
:1007D000F0E0808184608083E0EBF0E080818160E4
:1007E0008083EAE7F0E0808184608083808182609A
:1007F0008083808181608083808180688083109283
:10080000C1000895833081F028F4813099F082305E
:10081000A1F008958730A9F08830B9F08430D1F480
:10082000809180008F7D03C0809180008F778093BE
:100830008000089584B58F7702C084B58F7D84BD14
:1008400008958091B0008F7703C08091B0008F7DB4
:100850008093B0000895CF93DF9390E0FC01E458BB
:10086000FF4F2491FC01E057FF4F8491882349F109
:1008700090E0880F991FFC01E255FF4FA591B491BC
:100880008C559F4FFC01C591D4919FB7611108C051
:10089000F8948C91209582238C93888182230AC0BE
:1008A000623051F4F8948C91322F309583238C93DD
:1008B0008881822B888304C0F8948C91822B8C933E
:1008C0009FBFDF91CF9108950F931F93CF93DF9335
:1008D0001F92CDB7DEB7282F30E0F901E859FF4F5E
:1008E0008491F901E458FF4F1491F901E057FF4F4B
:1008F00004910023C9F0882321F069830E94020437
:100900006981E02FF0E0EE0FFF1FEC55FF4FA5913E
:10091000B4919FB7F8948C91611103C01095812315
:1009200001C0812B8C939FBF0F90DF91CF911F91BE
:100930000F910895FC01818D228D90E0805C9F4F86
:10094000821B91098F7399270895FC01918D828DE7
:10095000981731F0828DE80FF11D858D90E0089594
:100960008FEF9FEF0895FC01918D828D981761F0B4
:10097000828DDF01A80FB11D5D968C91928D9F5FD6
:100980009F73928F90E008958FEF9FEF089587E314
:1009900096E0892B49F080E090E0892B29F00E94B5
:1009A000370681110C9400000895FC01848DDF014D
:1009B000A80FB11DA35ABF4F2C91848D90E00196D2
:1009C0008F739927848FA689B7892C93A089B189C1
:1009D0008C9180648C93938D848D981306C00288CB
:1009E000F389E02D80818F7D80830895CF93DF93FD
:1009F000EC01888D8823C9F0EA89FB89808185FD17
:100A000005C0A889B9898C9186FD0FC00FB607FC77
:100A1000F5CF808185FFF2CFA889B9898C9185FFB8
:100A2000EDCFCE010E94D504E7CFDF91CF9108959D
:100A3000CF92DF92FF920F931F93CF93DF931F927A
:100A4000CDB7DEB76C0181E0D60158968C935897EC
:100A50005B969C915B975C968C915C97981307C012
:100A60005096ED91FC915197808185FD2EC0F60145
:100A7000038D10E00F5F1F4F0F731127F02EF6014B
:100A8000848DF81211C00FB607FCF9CFD60150962D
:100A9000ED91FC915197808185FFF1CFC60169836B
:100AA0000E94D5046981EBCF838DE80FF11DE35AD5
:100AB000FF4F6083D6015B960C935B975296ED9146
:100AC000FC915397808180620CC0D6015696ED91BF
:100AD000FC91579760835096ED91FC9151978081DE
:100AE0008064808381E090E00F90DF91CF911F912F
:100AF0000F91FF90DF90CF900895BF92CF92DF9239
:100B0000EF92FF92CF93DF93EC016A017B01B22E4B
:100B1000E889F98982E08083411581EE58076105F3
:100B20007105A1F060E079E08DE390E0A701960106
:100B30000E944709215031094109510956954795AD
:100B400037952795211580E1380798F0E889F989CC
:100B5000108260E874E88EE190E0A70196010E949F
:100B60004709215031094109510956954795379553
:100B70002795EC85FD853083EE85FF852083188ED3
:100B8000EC89FD89B082EA89FB898081806180835C
:100B9000EA89FB89808188608083EA89FB8980817A
:100BA00080688083EA89FB8980818F7D8083DF91E3
:100BB000CF91FF90EF90DF90CF90BF9008951F925C
:100BC0000F920FB60F9211242F938F939F93EF9351
:100BD000FF93E0912102F09122028081E0912702AF
:100BE000F091280282FD12C0908180912A028F5FCD
:100BF0008F7320912B02821751F0E0912A02F0E0CE
:100C0000EF5EFD4F958F80932A0201C08081FF9196
:100C1000EF919F918F912F910F900FBE0F901F908A
:100C200018951F920F920FB60F9211242F933F9396
:100C30004F935F936F937F938F939F93AF93BF93E4
:100C4000EF93FF9381E192E00E94D504FF91EF9131
:100C5000BF91AF919F918F917F916F915F914F91D4
:100C60003F912F910F900FBE0F901F90189581E12B
:100C700092E00E949A0421E0892B09F420E0822F5F
:100C80000895109214021092130288EE93E0A0E0EF
:100C9000B0E08093150290931602A0931702B093D0
:100CA000180286EB91E0909312028093110285EC7A
:100CB00090E090931E0280931D0284EC90E090934C
:100CC000200280931F0280EC90E090932202809398
:100CD000210281EC90E0909324028093230282EC25
:100CE00090E0909326028093250286EC90E090930A
:100CF00028028093270210922A0210922B0210924F
:100D00002C0210922D02089508950E94C7030E949C
:100D100084060E948700C7ECD4E00E94020220975C
:100D2000E1F30E94C704F9CFCF92DF92EF92FF92D6
:100D30000F931F93CF93DF937C016A01EB0100E0D7
:100D400010E00C151D0571F06991D701ED91FC9132
:100D50000190F081E02DC7010995892B19F00F5FF3
:100D60001F4FEFCFC801DF91CF911F910F91FF90DF
:100D7000EF90DF90CF9008956115710581F0DB0150
:100D80000D900020E9F7AD0141505109461B570B6A
:100D9000DC01ED91FC910280F381E02D099480E06B
:100DA00090E00895DC01ED91FC91DB0114964D91EA
:100DB0005C9115976D917C910280F381E02D0994EF
:100DC0000C94BC0667E671E00C94BC060F931F936D
:100DD000CF93DF93EC010E94D2068C01CE010E94DA
:100DE000E206800F911FDF91CF911F910F9108951F
:100DF0000F931F93CF93DF93EC010E94BC068C01ED
:100E0000CE010E94E206800F911FDF91CF911F91CA
:100E10000F9108958F929F92AF92BF92DF92EF92BF
:100E2000FF920F931F93CF93DF93CDB7DEB7A197B8
:100E30000FB6F894DEBF0FBECDBF7C01F42FD52EC8
:100E4000CB0119A2223008F42AE08E010F5D1F4F5A
:100E5000822E912CA12CB12C6F2F7D2DA5019401F8
:100E60000E944709F22FD32ECA01015011096A309E
:100E700014F4E0E301C0E7E3E60FD801EC93232B81
:100E8000242B252B49F7B801C7010E94BC06A19667
:100E90000FB6F894DEBF0FBECDBFDF91CF911F918B
:100EA0000F91FF90EF90DF90BF90AF909F908F9049
:100EB00008952115310541F4DC01ED91FC9101907B
:100EC000F081E02D642F09940C940A079A01462FB3
:100ED00050E060E070E00C9459070F931F93CF939C
:100EE000DF93EC010E945E03688779878A879B877E
:100EF000E881F9810680F781E02DCE01099597FF01
:100F000015C00E945E03088519852A853B85601BF4
:100F1000710B820B930B0C811D812E813F81601719
:100F200071078207930720F38FEF9FEFDF91CF9137
:100F30001F910F9108950F931F93CF93DF93EC01AF
:100F40008B0169E671E00E942308C8010E946D07C9
:100F500097FD05C0682FCE010E949D08F6CFCE01F7
:100F6000DF91CF911F910F910895FC0180819181B4
:100F70000C94070ACF93DF93EC0188819981009745
:100F800011F00E94070A198218821D821C821B829E
:100F90001A82DF91CF9108950F931F93CF93DF9320
:100FA000EC018B016F5F7F4F888199810E94960AC7
:100FB000009731F0998388831B830A8381E001C005
:100FC00080E0DF91CF911F910F910895CF93DF9330
:100FD000EC0188819981892B29F08A819B81861770
:100FE000970760F4CE010E94CC07882341F08C81E2
:100FF0009D81892B19F4E881F981108281E0DF91CC
:10100000CF910895EF92FF920F931F93CF93DF93A9
:10101000EC017B018A01BA010E94E607811104C03C
:10102000CE010E94BA0707C01D830C83B7018881D7
:1010300099810E94A10BCE01DF91CF911F910F9159
:10104000FF90EF900895FC011182108213821282AA
:10105000158214826115710559F0FB010190002081
:10106000E9F7AF0141505109461B570B0C94020898
:101070000895CF93DF93EC01FB018617970761F08A
:10108000608171816115710529F0448155810E944B
:10109000020802C00E94BA07CE01DF91CF910895E5
:1010A000FC011182108213821282158214820C9428
:1010B0003908CF93DF93EC016115710561F0FB01F5
:1010C00001900020E9F7AF0141505109461B570B31
:1010D0000E94020802C00E94BA07CE01DF91CF91A0
:1010E0000895EF92FF920F931F93CF93DF93EC013C
:1010F0007B010C811D816115710511F480E016C022
:101100004115510591F0040F151FB8010E94E60723
:101110008823A1F3288139818C819D81B701820FB9
:10112000931F0E94A10B1D830C8381E0DF91CF915F
:101130001F910F91FF90EF900895CF93DF9300D010
:10114000CDB7DEB769831A8241E050E0BE016F5F20
:101150007F4F0E9471080F900F90DF91CF910895FB
:10116000FC0124813581232B31F421E061157105C7
:10117000A1F0FB0108C0FC0180819181611571051E
:1011800031F421E0FC018081882339F005C00E9400
:10119000980B21E0892B09F020E0822F0895FC01B3
:1011A000248135816217730748F48081918100970B
:1011B00029F0FC01E60FF71F8081089580E0089573
:1011C0000C94CF08BF92CF92DF92EF92FF920F93D1
:1011D0001F93CF93DF936C017B01EA0189012417F0
:1011E000350720F48D2FE901042F182F69E671E0EF
:1011F000C6010E942308D70114968D919C911597E2
:10120000C817D907C8F48017910708F48C01D701D3
:10121000ED91FC911197E00FF11FB08010826D915C
:101220007C916C0F7D1FC6010E945908D701ED917A
:10123000FC91E00FF11FB082C601DF91CF911F91A9
:101240000F91FF90EF90DF90CF90BF900895CF93D4
:10125000DF93FC01C081D181209751F088818823E0
:1012600039F0992787FD90950E94870B8993F6CFD7
:10127000DF91CF910895FC0180819181009711F059
:101280000C94600B60E070E0CB0108950895A1E23A
:101290001A2EAA1BBB1BFD010DC0AA1FBB1FEE1FF0
:1012A000FF1FA217B307E407F50720F0A21BB30B3B
:1012B000E40BF50B661F771F881F991F1A9469F7B7
:1012C00060957095809590959B01AC01BD01CF0113
:1012D0000895EE0FFF1F0590F491E02D0994CF9330
:1012E000DF938230910510F482E090E0E091B0024B
:1012F000F091B10220E030E0A0E0B0E0309739F1A9
:101300004081518148175907B8F04817590771F4BF
:1013100082819381109729F013969C938E93129754
:101320002CC09093B1028093B00227C021153105E3
:1013300031F04217530718F0A901DB0101C0EF019A
:101340009A01BD01DF010280F381E02DD7CF211585
:101350003105F9F0281B390B2430310580F48A81DE
:101360009B816115710521F0FB019383828304C089
:101370009093B1028093B002FE01329644C0FE0108
:10138000E20FF31F8193919322503109398328830F
:101390003AC02091AE023091AF02232B41F420914C
:1013A0000201309103013093AF022093AE022091ED
:1013B0000001309101012115310541F42DB73EB7EF
:1013C0004091040150910501241B350BE091AE02C0
:1013D000F091AF02E217F307A0F42E1B3F0B281782
:1013E000390778F0AC014E5F5F4F2417350748F09E
:1013F0004E0F5F1F5093AF024093AE0281939193C3
:1014000002C0E0E0F0E0CF01DF91CF910895CF93EB
:10141000DF93009709F487C0FC0132971382128290
:10142000C091B002D091B102209781F42081318126
:10143000280F391F8091AE029091AF028217930757
:1014400079F5F093AF02E093AE026DC0DE0120E0CB
:1014500030E0AE17BF0750F412964D915C91139790
:101460009D014115510509F1DA01F3CFB383A28340
:1014700040815181840F951F8A179B0771F48D91CC
:101480009C911197840F951F0296918380831296E9
:101490008D919C911397938382832115310529F4B3
:1014A000F093B102E093B0023EC0D9011396FC93D1
:1014B000EE9312974D915D91A40FB51FEA17FB07AC
:1014C00079F480819181840F951F0296D90111963C
:1014D0009C938E938281938113969C938E93129703
:1014E000E0E0F0E08A819B81009719F0FE01EC01B9
:1014F000F9CFCE01029628813981820F931F209166
:10150000AE023091AF022817390769F4309729F4F9
:101510001092B1021092B00202C013821282D093D4
:10152000AF02C093AE02DF91CF910895A0E0B0E08A
:10153000ECE9FAE00C94C10BEC01CB01209719F413
:101540000E946F09B8C0FE01E60FF71F9E012250EE
:101550003109E217F30708F4ACC0D9010D911C91D1
:10156000119706171707B8F00530110508F49FC04A
:10157000A801445051094617570708F498C0025073
:101580001109061B170B019311936D937C93CF01E7
:101590000E94070A8CC05B01A01AB10A4E01800E9E
:1015A000911EA091B002B091B102612C712C60E04B
:1015B00070E0109709F449C0A815B905C9F5ED9078
:1015C000FC901197670142E0C40ED11CCA14DB04E1
:1015D00078F147018A189B08640142E0C40ED11CCF
:1015E0001296BC9012971396AC91B5E0CB16D1042D
:1015F00040F0B282A38391828082D9018D939C9323
:1016000009C00E5F1F4F0E0D1F1DF90111830083CE
:10161000EB2DFA2F6115710531F0DB011396FC9368
:10162000EE93129744C0F093B102E093B0023FC032
:101630006D917C9111976616770608F43B01BD0108
:1016400012960D90BC91A02DB4CF6091AE02709116
:10165000AF0268157905E9F468167906D0F440916F
:101660000001509101014115510541F44DB75EB79C
:101670006091040170910501461B570BE417F507B3
:10168000C0F4F093AF02E093AE02F901918380833E
:101690000EC00E946F097C01009759F0A801BE019D
:1016A0000E948F0BCE010E94070AC70104C0CE0121
:1016B00002C080E090E0CDB7DEB7EEE00C94DD0B29
:1016C0001F93FC0199278827BC01E89411911032DF
:1016D000E9F3193010F01E30C8F31B3251F01D32FF
:1016E00049F4689406C00E94A80B610F711D811D0A
:1016F000911D119110531A30B0F33EF490958095DE
:10170000709561957F4F8F4F9F4F1F910895911155
:10171000089581568A5108F4805285580895FB0136
:10172000DC0102C001900D9241505040D8F708955D
:10173000FB01DC018D91019080190110D9F3990B07
:101740000895FB01DC0101900D920020E1F708955E
:10175000592F482F372F262F660F771F881F991F65
:10176000660F771F881F991F620F731F841F951FB5
:10177000660F771F881F991F08952F923F924F92EF
:101780005F926F927F928F929F92AF92BF92CF9211
:10179000DF92EF92FF920F931F93CF93DF93CDB71A
:1017A000DEB7CA1BDB0B0FB6F894DEBF0FBECDBF92
:1017B00009942A88398848885F846E847D848C8463
:1017C0009B84AA84B984C884DF80EE80FD800C816C
:1017D0001B81AA81B981CE0FD11D0FB6F894DEBF4F
:0C17E0000FBECDBFED010895F894FFCFBF
:1017EC000000B2028000564D4450565F317C315F90
:1017FC00564D4450560D0A003A007320524543454D
:10180C004956454420434F4D4D414E443A200049E2
:10181C004E505554004F5554505554004849474864
:10182C00004C4F5700444953434F564552004143D7
:10183C004B4E4F574C4544474500564D4450435F23
:10184C00005F564D4450430D0A004572726F723A58
:10185C0020417474656D707420746F2073657420EE
:10186C006120726561642D6F6E6C7920766172698E
:10187C0061626C65206F7220646174612074797090
:10188C0065206E6F7420737570706F727465640D63
:10189C000A0000000000180594069A04B304A5047D
:1018AC00F6046E616E00696E66006F7666002E003F
:00000001FF
